{
  "_format": "hh-sol-artifact-1",
  "contractName": "SingleSwapToken",
  "sourceName": "contracts/SwapToken.sol",
  "abi": [
    {
      "inputs": [],
      "name": "DAI",
      "outputs": [
        {
          "internalType": "address",
          "name": "",
          "type": "address"
        }
      ],
      "stateMutability": "view",
      "type": "function"
    },
    {
      "inputs": [],
      "name": "USDC",
      "outputs": [
        {
          "internalType": "address",
          "name": "",
          "type": "address"
        }
      ],
      "stateMutability": "view",
      "type": "function"
    },
    {
      "inputs": [],
      "name": "WETH9",
      "outputs": [
        {
          "internalType": "address",
          "name": "",
          "type": "address"
        }
      ],
      "stateMutability": "view",
      "type": "function"
    },
    {
      "inputs": [
        {
          "internalType": "uint256",
          "name": "amountIn",
          "type": "uint256"
        }
      ],
      "name": "swapExactInputSingle",
      "outputs": [
        {
          "internalType": "uint256",
          "name": "amountOut",
          "type": "uint256"
        }
      ],
      "stateMutability": "nonpayable",
      "type": "function"
    },
    {
      "inputs": [
        {
          "internalType": "uint256",
          "name": "amountOut",
          "type": "uint256"
        },
        {
          "internalType": "uint256",
          "name": "amountInMaximum",
          "type": "uint256"
        }
      ],
      "name": "swapExactOutputSingle",
      "outputs": [
        {
          "internalType": "uint256",
          "name": "amountIn",
          "type": "uint256"
        }
      ],
      "stateMutability": "nonpayable",
      "type": "function"
    },
    {
      "inputs": [],
      "name": "swapRouter",
      "outputs": [
        {
          "internalType": "contract ISwapRouter",
          "name": "",
          "type": "address"
        }
      ],
      "stateMutability": "view",
      "type": "function"
    }
  ],
  "bytecode": "0x608060405234801561001057600080fd5b506108a1806100206000396000f3fe608060405234801561001057600080fd5b50600436106100625760003560e01c80634aa4a4fc1461006757806373bd43ad1461009f57806389a30271146100c0578063c31c9c07146100db578063c4b69a18146100f6578063e0bab4c414610109575b600080fd5b61008273c02aaa39b223fe8d0a0e5c4f27ead9083c756cc281565b6040516001600160a01b0390911681526020015b60405180910390f35b6100b26100ad36600461071a565b610124565b604051908152602001610096565b61008273a0b86991c6218b36c1d19d4a2e9eb0ce3606eb4881565b61008273e592427a0aece92de3edee1f18e0157c0586156481565b6100b2610104366004610733565b610273565b610082736b175474e89094c44da98b954eedeac495271d0f81565b600061014673c02aaa39b223fe8d0a0e5c4f27ead9083c756cc2333085610412565b61017973c02aaa39b223fe8d0a0e5c4f27ead9083c756cc273e592427a0aece92de3edee1f18e0157c0586156484610521565b604080516101008101825273c02aaa39b223fe8d0a0e5c4f27ead9083c756cc28152736b175474e89094c44da98b954eedeac495271d0f6020820152610bb891810191909152336060820152600090608081016101d84261012c61076b565b815260208101859052600060408083018290526060909201525163414bf38960e01b815290915073e592427a0aece92de3edee1f18e0157c058615649063414bf38990610229908490600401610784565b6020604051808303816000875af1158015610248573d6000803e3d6000fd5b505050506040513d601f19601f8201168201806040525081019061026c91906107ee565b9392505050565b600061029573c02aaa39b223fe8d0a0e5c4f27ead9083c756cc2333085610412565b6102c873c02aaa39b223fe8d0a0e5c4f27ead9083c756cc273e592427a0aece92de3edee1f18e0157c0586156484610521565b604080516101008101825273c02aaa39b223fe8d0a0e5c4f27ead9083c756cc28152736b175474e89094c44da98b954eedeac495271d0f6020820152610bb88183015233606082015242608082015260a0810185905260c08101849052600060e08201529051631b67c43360e31b815273e592427a0aece92de3edee1f18e0157c058615649063db3e219890610362908490600401610784565b6020604051808303816000875af1158015610381573d6000803e3d6000fd5b505050506040513d601f19601f820116820180604052508101906103a591906107ee565b91508282101561040b576103e373c02aaa39b223fe8d0a0e5c4f27ead9083c756cc273e592427a0aece92de3edee1f18e0157c058615646000610521565b61040b73c02aaa39b223fe8d0a0e5c4f27ead9083c756cc2336104068587610807565b610621565b5092915050565b604080516001600160a01b0385811660248301528481166044830152606480830185905283518084039091018152608490920183526020820180516001600160e01b03166323b872dd60e01b1790529151600092839290881691610476919061081a565b6000604051808303816000865af19150503d80600081146104b3576040519150601f19603f3d011682016040523d82523d6000602084013e6104b8565b606091505b50915091508180156104e25750805115806104e25750808060200190518101906104e29190610849565b6105195760405162461bcd60e51b815260206004820152600360248201526229aa2360e91b60448201526064015b60405180910390fd5b505050505050565b604080516001600160a01b038481166024830152604480830185905283518084039091018152606490920183526020820180516001600160e01b031663095ea7b360e01b179052915160009283929087169161057d919061081a565b6000604051808303816000865af19150503d80600081146105ba576040519150601f19603f3d011682016040523d82523d6000602084013e6105bf565b606091505b50915091508180156105e95750805115806105e95750808060200190518101906105e99190610849565b61061a5760405162461bcd60e51b8152602060048201526002602482015261534160f01b6044820152606401610510565b5050505050565b604080516001600160a01b038481166024830152604480830185905283518084039091018152606490920183526020820180516001600160e01b031663a9059cbb60e01b179052915160009283929087169161067d919061081a565b6000604051808303816000865af19150503d80600081146106ba576040519150601f19603f3d011682016040523d82523d6000602084013e6106bf565b606091505b50915091508180156106e95750805115806106e95750808060200190518101906106e99190610849565b61061a5760405162461bcd60e51b815260206004820152600260248201526114d560f21b6044820152606401610510565b60006020828403121561072c57600080fd5b5035919050565b6000806040838503121561074657600080fd5b50508035926020909101359150565b634e487b7160e01b600052601160045260246000fd5b8082018082111561077e5761077e610755565b92915050565b610100810161077e828480516001600160a01b03908116835260208083015182169084015260408083015162ffffff16908401526060808301518216908401526080808301519084015260a0828101519084015260c0808301519084015260e09182015116910152565b60006020828403121561080057600080fd5b5051919050565b8181038181111561077e5761077e610755565b6000825160005b8181101561083b5760208186018101518583015201610821565b506000920191825250919050565b60006020828403121561085b57600080fd5b8151801515811461026c57600080fdfea264697066735822122063694c8cd61208dc7aadb2abaa5404d586707c944bfb10d16afadd103e269ef464736f6c63430008110033",
  "linkReferences": {},
  "deployedLinkReferences": {}
}