{
  "_format": "hh-sol-artifact-1",
  "contractName": "SwapMultiHop",
  "sourceName": "contracts/SwapMultiHop.sol",
  "abi": [
    {
      "inputs": [],
      "name": "DAI",
      "outputs": [
        {
          "internalType": "address",
          "name": "",
          "type": "address"
        }
      ],
      "stateMutability": "view",
      "type": "function"
    },
    {
      "inputs": [],
      "name": "USDC",
      "outputs": [
        {
          "internalType": "address",
          "name": "",
          "type": "address"
        }
      ],
      "stateMutability": "view",
      "type": "function"
    },
    {
      "inputs": [],
      "name": "WETH9",
      "outputs": [
        {
          "internalType": "address",
          "name": "",
          "type": "address"
        }
      ],
      "stateMutability": "view",
      "type": "function"
    },
    {
      "inputs": [
        {
          "internalType": "uint256",
          "name": "amountIn",
          "type": "uint256"
        }
      ],
      "name": "swapExactInputMultihop",
      "outputs": [
        {
          "internalType": "uint256",
          "name": "amountOut",
          "type": "uint256"
        }
      ],
      "stateMutability": "nonpayable",
      "type": "function"
    },
    {
      "inputs": [
        {
          "internalType": "uint256",
          "name": "amountOut",
          "type": "uint256"
        },
        {
          "internalType": "uint256",
          "name": "amountInMaximum",
          "type": "uint256"
        }
      ],
      "name": "swapExactOutputMultihop",
      "outputs": [
        {
          "internalType": "uint256",
          "name": "amountIn",
          "type": "uint256"
        }
      ],
      "stateMutability": "nonpayable",
      "type": "function"
    },
    {
      "inputs": [],
      "name": "swapRouter",
      "outputs": [
        {
          "internalType": "contract ISwapRouter",
          "name": "",
          "type": "address"
        }
      ],
      "stateMutability": "view",
      "type": "function"
    }
  ],
  "bytecode": "0x608060405234801561001057600080fd5b50610946806100206000396000f3fe608060405234801561001057600080fd5b50600436106100625760003560e01c80633b85cf6a146100675780634aa4a4fc1461008d57806389a30271146100c0578063c31c9c07146100db578063e0bab4c4146100f6578063edd8355714610111575b600080fd5b61007a610075366004610769565b610124565b6040519081526020015b60405180910390f35b6100a873c02aaa39b223fe8d0a0e5c4f27ead9083c756cc281565b6040516001600160a01b039091168152602001610084565b6100a873a0b86991c6218b36c1d19d4a2e9eb0ce3606eb4881565b6100a873e592427a0aece92de3edee1f18e0157c0586156481565b6100a8736b175474e89094c44da98b954eedeac495271d0f81565b61007a61011f36600461078b565b6102ed565b600061014673c02aaa39b223fe8d0a0e5c4f27ead9083c756cc2333085610461565b61017973c02aaa39b223fe8d0a0e5c4f27ead9083c756cc273e592427a0aece92de3edee1f18e0157c0586156484610570565b6040805160a08101909152600090806101d8736b175474e89094c44da98b954eedeac495271d0f606473a0b86991c6218b36c1d19d4a2e9eb0ce3606eb48610bb873c02aaa39b223fe8d0a0e5c4f27ead9083c756cc260c087016107a4565b60408051601f19818403018152918152908252336020830152428282015260608201879052608090910185905251631e51809360e31b815290915073e592427a0aece92de3edee1f18e0157c058615649063f28c04989061023d90849060040161087f565b6020604051808303816000875af115801561025c573d6000803e3d6000fd5b505050506040513d601f19601f820116820180604052508101906102809190610892565b9150828210156102e6576102be73c02aaa39b223fe8d0a0e5c4f27ead9083c756cc273e592427a0aece92de3edee1f18e0157c058615646000610570565b6102e673c02aaa39b223fe8d0a0e5c4f27ead9083c756cc2336102e185876108ab565b610670565b5092915050565b600061030f73c02aaa39b223fe8d0a0e5c4f27ead9083c756cc2333085610461565b61034273c02aaa39b223fe8d0a0e5c4f27ead9083c756cc273e592427a0aece92de3edee1f18e0157c0586156484610570565b6040805160a08101909152600090806103a173c02aaa39b223fe8d0a0e5c4f27ead9083c756cc2610bb873a0b86991c6218b36c1d19d4a2e9eb0ce3606eb486064736b175474e89094c44da98b954eedeac495271d0f60c087016107a4565b6040516020818303038152906040528152602001336001600160a01b031681526020014281526020018481526020016000815250905073e592427a0aece92de3edee1f18e0157c058615646001600160a01b031663c04b8d59826040518263ffffffff1660e01b8152600401610417919061087f565b6020604051808303816000875af1158015610436573d6000803e3d6000fd5b505050506040513d601f19601f8201168201806040525081019061045a9190610892565b9392505050565b604080516001600160a01b0385811660248301528481166044830152606480830185905283518084039091018152608490920183526020820180516001600160e01b03166323b872dd60e01b17905291516000928392908816916104c591906108d2565b6000604051808303816000865af19150503d8060008114610502576040519150601f19603f3d011682016040523d82523d6000602084013e610507565b606091505b509150915081801561053157508051158061053157508080602001905181019061053191906108ee565b6105685760405162461bcd60e51b815260206004820152600360248201526229aa2360e91b60448201526064015b60405180910390fd5b505050505050565b604080516001600160a01b038481166024830152604480830185905283518084039091018152606490920183526020820180516001600160e01b031663095ea7b360e01b17905291516000928392908716916105cc91906108d2565b6000604051808303816000865af19150503d8060008114610609576040519150601f19603f3d011682016040523d82523d6000602084013e61060e565b606091505b509150915081801561063857508051158061063857508080602001905181019061063891906108ee565b6106695760405162461bcd60e51b8152602060048201526002602482015261534160f01b604482015260640161055f565b5050505050565b604080516001600160a01b038481166024830152604480830185905283518084039091018152606490920183526020820180516001600160e01b031663a9059cbb60e01b17905291516000928392908716916106cc91906108d2565b6000604051808303816000865af19150503d8060008114610709576040519150601f19603f3d011682016040523d82523d6000602084013e61070e565b606091505b509150915081801561073857508051158061073857508080602001905181019061073891906108ee565b6106695760405162461bcd60e51b815260206004820152600260248201526114d560f21b604482015260640161055f565b6000806040838503121561077c57600080fd5b50508035926020909101359150565b60006020828403121561079d57600080fd5b5035919050565b6bffffffffffffffffffffffff19606096871b811682526001600160e81b031960e896871b8116601484015294871b811660178301529290941b909216602b840152921b909116602e82015260420190565b60005b838110156108115781810151838201526020016107f9565b50506000910152565b6000815160a0845280518060a086015261083b8160c08701602085016107f6565b6020848101516001600160a01b0316908601526040808501519086015260608085015190860152608093840151938501939093525050601f01601f19160160c00190565b60208152600061045a602083018461081a565b6000602082840312156108a457600080fd5b5051919050565b818103818111156108cc57634e487b7160e01b600052601160045260246000fd5b92915050565b600082516108e48184602087016107f6565b9190910192915050565b60006020828403121561090057600080fd5b8151801515811461045a57600080fdfea2646970667358221220ae9a42df380c93d2812510a222172d26fdde86cd5b17e6eb903b8da977fa236364736f6c63430008110033",
  "linkReferences": {},
  "deployedLinkReferences": {}
}